{
  "_format": "hh-sol-artifact-1",
  "contractName": "MonkeyNFT",
  "sourceName": "contracts/MonkeyNFT.sol",
  "abi": [
    {
      "inputs": [],
      "stateMutability": "nonpayable",
      "type": "constructor"
    },
    {
      "anonymous": false,
      "inputs": [
        {
          "indexed": true,
          "internalType": "address",
          "name": "owner",
          "type": "address"
        },
        {
          "indexed": true,
          "internalType": "address",
          "name": "approved",
          "type": "address"
        },
        {
          "indexed": true,
          "internalType": "uint256",
          "name": "tokenId",
          "type": "uint256"
        }
      ],
      "name": "Approval",
      "type": "event"
    },
    {
      "anonymous": false,
      "inputs": [
        {
          "indexed": true,
          "internalType": "address",
          "name": "owner",
          "type": "address"
        },
        {
          "indexed": true,
          "internalType": "address",
          "name": "operator",
          "type": "address"
        },
        {
          "indexed": false,
          "internalType": "bool",
          "name": "approved",
          "type": "bool"
        }
      ],
      "name": "ApprovalForAll",
      "type": "event"
    },
    {
      "anonymous": false,
      "inputs": [
        {
          "indexed": true,
          "internalType": "address",
          "name": "buyer",
          "type": "address"
        },
        {
          "indexed": false,
          "internalType": "uint256",
          "name": "tokenId",
          "type": "uint256"
        }
      ],
      "name": "MintedNFT",
      "type": "event"
    },
    {
      "anonymous": false,
      "inputs": [
        {
          "indexed": true,
          "internalType": "address",
          "name": "previousOwner",
          "type": "address"
        },
        {
          "indexed": true,
          "internalType": "address",
          "name": "newOwner",
          "type": "address"
        }
      ],
      "name": "OwnershipTransferred",
      "type": "event"
    },
    {
      "anonymous": false,
      "inputs": [
        {
          "indexed": false,
          "internalType": "address",
          "name": "account",
          "type": "address"
        }
      ],
      "name": "Paused",
      "type": "event"
    },
    {
      "anonymous": false,
      "inputs": [
        {
          "indexed": true,
          "internalType": "address",
          "name": "from",
          "type": "address"
        },
        {
          "indexed": true,
          "internalType": "address",
          "name": "to",
          "type": "address"
        },
        {
          "indexed": true,
          "internalType": "uint256",
          "name": "tokenId",
          "type": "uint256"
        }
      ],
      "name": "Transfer",
      "type": "event"
    },
    {
      "anonymous": false,
      "inputs": [
        {
          "indexed": false,
          "internalType": "address",
          "name": "account",
          "type": "address"
        }
      ],
      "name": "Unpaused",
      "type": "event"
    },
    {
      "anonymous": false,
      "inputs": [
        {
          "indexed": true,
          "internalType": "address",
          "name": "to",
          "type": "address"
        },
        {
          "indexed": false,
          "internalType": "uint256",
          "name": "amount",
          "type": "uint256"
        }
      ],
      "name": "Withdraw",
      "type": "event"
    },
    {
      "inputs": [],
      "name": "MAX_SUPPLY",
      "outputs": [
        {
          "internalType": "uint256",
          "name": "",
          "type": "uint256"
        }
      ],
      "stateMutability": "view",
      "type": "function"
    },
    {
      "inputs": [],
      "name": "MAX_WHITELIST_ADDRESS",
      "outputs": [
        {
          "internalType": "uint256",
          "name": "",
          "type": "uint256"
        }
      ],
      "stateMutability": "view",
      "type": "function"
    },
    {
      "inputs": [],
      "name": "PUBLIC_MINT_PRICE",
      "outputs": [
        {
          "internalType": "uint256",
          "name": "",
          "type": "uint256"
        }
      ],
      "stateMutability": "view",
      "type": "function"
    },
    {
      "inputs": [],
      "name": "TOTAL_WHITELIST_ADDRESS",
      "outputs": [
        {
          "internalType": "uint256",
          "name": "",
          "type": "uint256"
        }
      ],
      "stateMutability": "view",
      "type": "function"
    },
    {
      "inputs": [],
      "name": "WHITELIST_MINT_PRICE",
      "outputs": [
        {
          "internalType": "uint256",
          "name": "",
          "type": "uint256"
        }
      ],
      "stateMutability": "view",
      "type": "function"
    },
    {
      "inputs": [
        {
          "internalType": "address",
          "name": "to",
          "type": "address"
        },
        {
          "internalType": "uint256",
          "name": "tokenId",
          "type": "uint256"
        }
      ],
      "name": "approve",
      "outputs": [],
      "stateMutability": "nonpayable",
      "type": "function"
    },
    {
      "inputs": [
        {
          "internalType": "address",
          "name": "owner",
          "type": "address"
        }
      ],
      "name": "balanceOf",
      "outputs": [
        {
          "internalType": "uint256",
          "name": "",
          "type": "uint256"
        }
      ],
      "stateMutability": "view",
      "type": "function"
    },
    {
      "inputs": [
        {
          "internalType": "uint256",
          "name": "tokenId",
          "type": "uint256"
        }
      ],
      "name": "getApproved",
      "outputs": [
        {
          "internalType": "address",
          "name": "",
          "type": "address"
        }
      ],
      "stateMutability": "view",
      "type": "function"
    },
    {
      "inputs": [],
      "name": "getWhiteList",
      "outputs": [],
      "stateMutability": "nonpayable",
      "type": "function"
    },
    {
      "inputs": [
        {
          "internalType": "address",
          "name": "owner",
          "type": "address"
        },
        {
          "internalType": "address",
          "name": "operator",
          "type": "address"
        }
      ],
      "name": "isApprovedForAll",
      "outputs": [
        {
          "internalType": "bool",
          "name": "",
          "type": "bool"
        }
      ],
      "stateMutability": "view",
      "type": "function"
    },
    {
      "inputs": [
        {
          "internalType": "address",
          "name": "",
          "type": "address"
        }
      ],
      "name": "mintedWallet",
      "outputs": [
        {
          "internalType": "uint256",
          "name": "",
          "type": "uint256"
        }
      ],
      "stateMutability": "view",
      "type": "function"
    },
    {
      "inputs": [],
      "name": "name",
      "outputs": [
        {
          "internalType": "string",
          "name": "",
          "type": "string"
        }
      ],
      "stateMutability": "view",
      "type": "function"
    },
    {
      "inputs": [],
      "name": "owner",
      "outputs": [
        {
          "internalType": "address",
          "name": "",
          "type": "address"
        }
      ],
      "stateMutability": "view",
      "type": "function"
    },
    {
      "inputs": [
        {
          "internalType": "uint256",
          "name": "tokenId",
          "type": "uint256"
        }
      ],
      "name": "ownerOf",
      "outputs": [
        {
          "internalType": "address",
          "name": "",
          "type": "address"
        }
      ],
      "stateMutability": "view",
      "type": "function"
    },
    {
      "inputs": [],
      "name": "pause",
      "outputs": [],
      "stateMutability": "nonpayable",
      "type": "function"
    },
    {
      "inputs": [],
      "name": "paused",
      "outputs": [
        {
          "internalType": "bool",
          "name": "",
          "type": "bool"
        }
      ],
      "stateMutability": "view",
      "type": "function"
    },
    {
      "inputs": [
        {
          "internalType": "uint256",
          "name": "quantity",
          "type": "uint256"
        }
      ],
      "name": "publicMint",
      "outputs": [],
      "stateMutability": "payable",
      "type": "function"
    },
    {
      "inputs": [],
      "name": "renounceOwnership",
      "outputs": [],
      "stateMutability": "nonpayable",
      "type": "function"
    },
    {
      "inputs": [
        {
          "internalType": "address",
          "name": "from",
          "type": "address"
        },
        {
          "internalType": "address",
          "name": "to",
          "type": "address"
        },
        {
          "internalType": "uint256",
          "name": "tokenId",
          "type": "uint256"
        }
      ],
      "name": "safeTransferFrom",
      "outputs": [],
      "stateMutability": "nonpayable",
      "type": "function"
    },
    {
      "inputs": [
        {
          "internalType": "address",
          "name": "from",
          "type": "address"
        },
        {
          "internalType": "address",
          "name": "to",
          "type": "address"
        },
        {
          "internalType": "uint256",
          "name": "tokenId",
          "type": "uint256"
        },
        {
          "internalType": "bytes",
          "name": "data",
          "type": "bytes"
        }
      ],
      "name": "safeTransferFrom",
      "outputs": [],
      "stateMutability": "nonpayable",
      "type": "function"
    },
    {
      "inputs": [
        {
          "internalType": "address",
          "name": "operator",
          "type": "address"
        },
        {
          "internalType": "bool",
          "name": "approved",
          "type": "bool"
        }
      ],
      "name": "setApprovalForAll",
      "outputs": [],
      "stateMutability": "nonpayable",
      "type": "function"
    },
    {
      "inputs": [
        {
          "internalType": "bytes4",
          "name": "interfaceId",
          "type": "bytes4"
        }
      ],
      "name": "supportsInterface",
      "outputs": [
        {
          "internalType": "bool",
          "name": "",
          "type": "bool"
        }
      ],
      "stateMutability": "view",
      "type": "function"
    },
    {
      "inputs": [],
      "name": "symbol",
      "outputs": [
        {
          "internalType": "string",
          "name": "",
          "type": "string"
        }
      ],
      "stateMutability": "view",
      "type": "function"
    },
    {
      "inputs": [
        {
          "internalType": "uint256",
          "name": "index",
          "type": "uint256"
        }
      ],
      "name": "tokenByIndex",
      "outputs": [
        {
          "internalType": "uint256",
          "name": "",
          "type": "uint256"
        }
      ],
      "stateMutability": "view",
      "type": "function"
    },
    {
      "inputs": [
        {
          "internalType": "address",
          "name": "owner",
          "type": "address"
        },
        {
          "internalType": "uint256",
          "name": "index",
          "type": "uint256"
        }
      ],
      "name": "tokenOfOwnerByIndex",
      "outputs": [
        {
          "internalType": "uint256",
          "name": "",
          "type": "uint256"
        }
      ],
      "stateMutability": "view",
      "type": "function"
    },
    {
      "inputs": [
        {
          "internalType": "uint256",
          "name": "tokenId",
          "type": "uint256"
        }
      ],
      "name": "tokenURI",
      "outputs": [
        {
          "internalType": "string",
          "name": "",
          "type": "string"
        }
      ],
      "stateMutability": "view",
      "type": "function"
    },
    {
      "inputs": [],
      "name": "totalSupply",
      "outputs": [
        {
          "internalType": "uint256",
          "name": "",
          "type": "uint256"
        }
      ],
      "stateMutability": "view",
      "type": "function"
    },
    {
      "inputs": [
        {
          "internalType": "address",
          "name": "from",
          "type": "address"
        },
        {
          "internalType": "address",
          "name": "to",
          "type": "address"
        },
        {
          "internalType": "uint256",
          "name": "tokenId",
          "type": "uint256"
        }
      ],
      "name": "transferFrom",
      "outputs": [],
      "stateMutability": "nonpayable",
      "type": "function"
    },
    {
      "inputs": [
        {
          "internalType": "address",
          "name": "newOwner",
          "type": "address"
        }
      ],
      "name": "transferOwnership",
      "outputs": [],
      "stateMutability": "nonpayable",
      "type": "function"
    },
    {
      "inputs": [],
      "name": "unpause",
      "outputs": [],
      "stateMutability": "nonpayable",
      "type": "function"
    },
    {
      "inputs": [
        {
          "internalType": "address",
          "name": "",
          "type": "address"
        }
      ],
      "name": "whiteListAddress",
      "outputs": [
        {
          "internalType": "bool",
          "name": "",
          "type": "bool"
        }
      ],
      "stateMutability": "view",
      "type": "function"
    },
    {
      "inputs": [
        {
          "internalType": "uint256",
          "name": "quantity",
          "type": "uint256"
        }
      ],
      "name": "whiteListMint",
      "outputs": [],
      "stateMutability": "payable",
      "type": "function"
    },
    {
      "inputs": [
        {
          "internalType": "address",
          "name": "to",
          "type": "address"
        }
      ],
      "name": "withdrawFunds",
      "outputs": [],
      "stateMutability": "nonpayable",
      "type": "function"
    }
  ],
  "bytecode": "0x60806040526004600c55662386f26fc10000600d5566038d7ea4c68000600e556002600f553480156200003157600080fd5b506040518060400160405280600681526020017f4d6f6e6b657900000000000000000000000000000000000000000000000000008152506040518060400160405280600381526020017f4d4b5900000000000000000000000000000000000000000000000000000000008152508160009081620000af91906200044d565b508060019081620000c191906200044d565b5050506000600a60006101000a81548160ff021916908315150217905550620000ff620000f36200010560201b60201c565b6200010d60201b60201c565b62000534565b600033905090565b6000600a60019054906101000a900473ffffffffffffffffffffffffffffffffffffffff16905081600a60016101000a81548173ffffffffffffffffffffffffffffffffffffffff021916908373ffffffffffffffffffffffffffffffffffffffff1602179055508173ffffffffffffffffffffffffffffffffffffffff168173ffffffffffffffffffffffffffffffffffffffff167f8be0079c531659141344cd1fd0a4f28419497f9722a3daafe3b4186f6b6457e060405160405180910390a35050565b600081519050919050565b7f4e487b7100000000000000000000000000000000000000000000000000000000600052604160045260246000fd5b7f4e487b7100000000000000000000000000000000000000000000000000000000600052602260045260246000fd5b600060028204905060018216806200025557607f821691505b6020821081036200026b576200026a6200020d565b5b50919050565b60008190508160005260206000209050919050565b60006020601f8301049050919050565b600082821b905092915050565b600060088302620002d57fffffffffffffffffffffffffffffffffffffffffffffffffffffffffffffffff8262000296565b620002e1868362000296565b95508019841693508086168417925050509392505050565b6000819050919050565b6000819050919050565b60006200032e620003286200032284620002f9565b62000303565b620002f9565b9050919050565b6000819050919050565b6200034a836200030d565b62000362620003598262000335565b848454620002a3565b825550505050565b600090565b620003796200036a565b620003868184846200033f565b505050565b5b81811015620003ae57620003a26000826200036f565b6001810190506200038c565b5050565b601f821115620003fd57620003c78162000271565b620003d28462000286565b81016020851015620003e2578190505b620003fa620003f18562000286565b8301826200038b565b50505b505050565b600082821c905092915050565b6000620004226000198460080262000402565b1980831691505092915050565b60006200043d83836200040f565b9150826002028217905092915050565b6200045882620001d3565b67ffffffffffffffff811115620004745762000473620001de565b5b6200048082546200023c565b6200048d828285620003b2565b600060209050601f831160018114620004c55760008415620004b0578287015190505b620004bc85826200042f565b8655506200052c565b601f198416620004d58662000271565b60005b82811015620004ff57848901518255600182019150602085019450602081019050620004d8565b868310156200051f57848901516200051b601f8916826200040f565b8355505b6001600288020188555050505b505050505050565b61425780620005446000396000f3fe6080604052600436106101ee5760003560e01c80636352211e1161010d578063a22cb465116100a0578063c87b56dd1161006f578063c87b56dd146106ab578063cf52a7b2146106e8578063dd53545114610725578063e985e9c514610750578063f2fde38b1461078d576101ee565b8063a22cb46514610603578063aca9938d1461062c578063b2ec653b14610657578063b88d4fde14610682576101ee565b8063715018a6116100dc578063715018a61461057f5780638456cb59146105965780638da5cb5b146105ad57806395d89b41146105d8576101ee565b80636352211e146104b157806368742da6146104ee5780636bde26271461051757806370a0823114610542576101ee565b806323b872dd116101855780633f4ba83a116101545780633f4ba83a1461040957806342842e0e146104205780634f6ccce7146104495780635c975abb14610486576101ee565b806323b872dd1461035c5780632db11544146103855780632f745c59146103a157806332cb6b0c146103de576101ee565b8063095ea7b3116101c1578063095ea7b3146102b457806309a9d76c146102dd57806318160ddd146102f4578063236bc5f01461031f576101ee565b806301ffc9a7146101f357806302e001ef1461023057806306fdde031461024c578063081812fc14610277575b600080fd5b3480156101ff57600080fd5b5061021a60048036038101906102159190612d7c565b6107b6565b6040516102279190612dc4565b60405180910390f35b61024a60048036038101906102459190612e15565b6107c8565b005b34801561025857600080fd5b50610261610a70565b60405161026e9190612ed2565b60405180910390f35b34801561028357600080fd5b5061029e60048036038101906102999190612e15565b610b02565b6040516102ab9190612f35565b60405180910390f35b3480156102c057600080fd5b506102db60048036038101906102d69190612f7c565b610b48565b005b3480156102e957600080fd5b506102f2610c5f565b005b34801561030057600080fd5b50610309610da4565b6040516103169190612fcb565b60405180910390f35b34801561032b57600080fd5b5061034660048036038101906103419190612fe6565b610db1565b6040516103539190612fcb565b60405180910390f35b34801561036857600080fd5b50610383600480360381019061037e9190613013565b610dc9565b005b61039f600480360381019061039a9190612e15565b610e29565b005b3480156103ad57600080fd5b506103c860048036038101906103c39190612f7c565b611045565b6040516103d59190612fcb565b60405180910390f35b3480156103ea57600080fd5b506103f36110ea565b6040516104009190612fcb565b60405180910390f35b34801561041557600080fd5b5061041e6110f0565b005b34801561042c57600080fd5b5061044760048036038101906104429190613013565b611102565b005b34801561045557600080fd5b50610470600480360381019061046b9190612e15565b611122565b60405161047d9190612fcb565b60405180910390f35b34801561049257600080fd5b5061049b611193565b6040516104a89190612dc4565b60405180910390f35b3480156104bd57600080fd5b506104d860048036038101906104d39190612e15565b6111aa565b6040516104e59190612f35565b60405180910390f35b3480156104fa57600080fd5b5061051560048036038101906105109190612fe6565b611230565b005b34801561052357600080fd5b5061052c6112d6565b6040516105399190612fcb565b60405180910390f35b34801561054e57600080fd5b5061056960048036038101906105649190612fe6565b6112dc565b6040516105769190612fcb565b60405180910390f35b34801561058b57600080fd5b50610594611393565b005b3480156105a257600080fd5b506105ab6113a7565b005b3480156105b957600080fd5b506105c26113b9565b6040516105cf9190612f35565b60405180910390f35b3480156105e457600080fd5b506105ed6113e3565b6040516105fa9190612ed2565b60405180910390f35b34801561060f57600080fd5b5061062a60048036038101906106259190613092565b611475565b005b34801561063857600080fd5b5061064161148b565b60405161064e9190612fcb565b60405180910390f35b34801561066357600080fd5b5061066c611491565b6040516106799190612fcb565b60405180910390f35b34801561068e57600080fd5b506106a960048036038101906106a49190613207565b611497565b005b3480156106b757600080fd5b506106d260048036038101906106cd9190612e15565b6114f9565b6040516106df9190612ed2565b60405180910390f35b3480156106f457600080fd5b5061070f600480360381019061070a9190612fe6565b611561565b60405161071c9190612dc4565b60405180910390f35b34801561073157600080fd5b5061073a611581565b6040516107479190612fcb565b60405180910390f35b34801561075c57600080fd5b506107776004803603810190610772919061328a565b611587565b6040516107849190612dc4565b60405180910390f35b34801561079957600080fd5b506107b460048036038101906107af9190612fe6565b61161b565b005b60006107c18261169e565b9050919050565b600c54816107d4610da4565b6107de91906132f9565b111561081f576040517f08c379a000000000000000000000000000000000000000000000000000000000815260040161081690613379565b60405180910390fd5b601260003373ffffffffffffffffffffffffffffffffffffffff1673ffffffffffffffffffffffffffffffffffffffff16815260200190815260200160002060009054906101000a900460ff166108ab576040517f08c379a00000000000000000000000000000000000000000000000000000000081526004016108a2906133e5565b60405180910390fd5b80600e546108b99190613405565b34146108fa576040517f08c379a00000000000000000000000000000000000000000000000000000000081526004016108f190613493565b60405180910390fd5b600381601160003373ffffffffffffffffffffffffffffffffffffffff1673ffffffffffffffffffffffffffffffffffffffff1681526020019081526020016000205461094791906132f9565b1115610988576040517f08c379a000000000000000000000000000000000000000000000000000000000815260040161097f906134ff565b60405180910390fd5b60005b81811015610a6c57600061099f600b611718565b90506109ab600b611726565b601160003373ffffffffffffffffffffffffffffffffffffffff1673ffffffffffffffffffffffffffffffffffffffff16815260200190815260200160002060008154809291906109fb9061351f565b9190505550610a0a338261173c565b3373ffffffffffffffffffffffffffffffffffffffff167f7a5477f3d257e8974dc6fb5c008b442d975968577dfad5d1283aa0a488bfab0b82604051610a509190612fcb565b60405180910390a2508080610a649061351f565b91505061098b565b5050565b606060008054610a7f90613596565b80601f0160208091040260200160405190810160405280929190818152602001828054610aab90613596565b8015610af85780601f10610acd57610100808354040283529160200191610af8565b820191906000526020600020905b815481529060010190602001808311610adb57829003601f168201915b5050505050905090565b6000610b0d8261175a565b6004600083815260200190815260200160002060009054906101000a900473ffffffffffffffffffffffffffffffffffffffff169050919050565b6000610b53826111aa565b90508073ffffffffffffffffffffffffffffffffffffffff168373ffffffffffffffffffffffffffffffffffffffff1603610bc3576040517f08c379a0000000000000000000000000000000000000000000000000000000008152600401610bba90613639565b60405180910390fd5b8073ffffffffffffffffffffffffffffffffffffffff16610be26117a5565b73ffffffffffffffffffffffffffffffffffffffff161480610c115750610c1081610c0b6117a5565b611587565b5b610c50576040517f08c379a0000000000000000000000000000000000000000000000000000000008152600401610c47906136cb565b60405180910390fd5b610c5a83836117ad565b505050565b601260003373ffffffffffffffffffffffffffffffffffffffff1673ffffffffffffffffffffffffffffffffffffffff16815260200190815260200160002060009054906101000a900460ff1615610cec576040517f08c379a0000000000000000000000000000000000000000000000000000000008152600401610ce390613737565b60405180910390fd5b600f5460105410610d32576040517f08c379a0000000000000000000000000000000000000000000000000000000008152600401610d29906137a3565b60405180910390fd5b60106000815480929190610d459061351f565b91905055506001601260003373ffffffffffffffffffffffffffffffffffffffff1673ffffffffffffffffffffffffffffffffffffffff16815260200190815260200160002060006101000a81548160ff021916908315150217905550565b6000600880549050905090565b60116020528060005260406000206000915090505481565b610dda610dd46117a5565b82611866565b610e19576040517f08c379a0000000000000000000000000000000000000000000000000000000008152600401610e1090613835565b60405180910390fd5b610e248383836118fb565b505050565b600c5481610e35610da4565b610e3f91906132f9565b1115610e80576040517f08c379a0000000000000000000000000000000000000000000000000000000008152600401610e7790613379565b60405180910390fd5b80600d54610e8e9190613405565b3414610ecf576040517f08c379a0000000000000000000000000000000000000000000000000000000008152600401610ec690613493565b60405180910390fd5b600381601160003373ffffffffffffffffffffffffffffffffffffffff1673ffffffffffffffffffffffffffffffffffffffff16815260200190815260200160002054610f1c91906132f9565b1115610f5d576040517f08c379a0000000000000000000000000000000000000000000000000000000008152600401610f54906134ff565b60405180910390fd5b60005b81811015611041576000610f74600b611718565b9050610f80600b611726565b601160003373ffffffffffffffffffffffffffffffffffffffff1673ffffffffffffffffffffffffffffffffffffffff1681526020019081526020016000206000815480929190610fd09061351f565b9190505550610fdf338261173c565b3373ffffffffffffffffffffffffffffffffffffffff167f7a5477f3d257e8974dc6fb5c008b442d975968577dfad5d1283aa0a488bfab0b826040516110259190612fcb565b60405180910390a25080806110399061351f565b915050610f60565b5050565b6000611050836112dc565b8210611091576040517f08c379a0000000000000000000000000000000000000000000000000000000008152600401611088906138c7565b60405180910390fd5b600660008473ffffffffffffffffffffffffffffffffffffffff1673ffffffffffffffffffffffffffffffffffffffff168152602001908152602001600020600083815260200190815260200160002054905092915050565b600c5481565b6110f8611bf4565b611100611c72565b565b61111d83838360405180602001604052806000815250611497565b505050565b600061112c610da4565b821061116d576040517f08c379a000000000000000000000000000000000000000000000000000000000815260040161116490613959565b60405180910390fd5b6008828154811061118157611180613979565b5b90600052602060002001549050919050565b6000600a60009054906101000a900460ff16905090565b6000806111b683611cd5565b9050600073ffffffffffffffffffffffffffffffffffffffff168173ffffffffffffffffffffffffffffffffffffffff1603611227576040517f08c379a000000000000000000000000000000000000000000000000000000000815260040161121e906139f4565b60405180910390fd5b80915050919050565b611238611bf4565b60004790508173ffffffffffffffffffffffffffffffffffffffff166108fc829081150290604051600060405180830381858888f19350505050158015611283573d6000803e3d6000fd5b508173ffffffffffffffffffffffffffffffffffffffff167f884edad9ce6fa2440d8a54cc123490eb96d2768479d49ff9c7366125a9424364826040516112ca9190612fcb565b60405180910390a25050565b600d5481565b60008073ffffffffffffffffffffffffffffffffffffffff168273ffffffffffffffffffffffffffffffffffffffff160361134c576040517f08c379a000000000000000000000000000000000000000000000000000000000815260040161134390613a86565b60405180910390fd5b600360008373ffffffffffffffffffffffffffffffffffffffff1673ffffffffffffffffffffffffffffffffffffffff168152602001908152602001600020549050919050565b61139b611bf4565b6113a56000611d12565b565b6113af611bf4565b6113b7611dd8565b565b6000600a60019054906101000a900473ffffffffffffffffffffffffffffffffffffffff16905090565b6060600180546113f290613596565b80601f016020809104026020016040519081016040528092919081815260200182805461141e90613596565b801561146b5780601f106114405761010080835404028352916020019161146b565b820191906000526020600020905b81548152906001019060200180831161144e57829003601f168201915b5050505050905090565b6114876114806117a5565b8383611e3b565b5050565b600e5481565b600f5481565b6114a86114a26117a5565b83611866565b6114e7576040517f08c379a00000000000000000000000000000000000000000000000000000000081526004016114de90613835565b60405180910390fd5b6114f384848484611fa7565b50505050565b60606115048261175a565b600061150e612003565b9050600081511161152e5760405180602001604052806000815250611559565b8061153884612023565b604051602001611549929190613ae2565b6040516020818303038152906040525b915050919050565b60126020528060005260406000206000915054906101000a900460ff1681565b60105481565b6000600560008473ffffffffffffffffffffffffffffffffffffffff1673ffffffffffffffffffffffffffffffffffffffff16815260200190815260200160002060008373ffffffffffffffffffffffffffffffffffffffff1673ffffffffffffffffffffffffffffffffffffffff16815260200190815260200160002060009054906101000a900460ff16905092915050565b611623611bf4565b600073ffffffffffffffffffffffffffffffffffffffff168173ffffffffffffffffffffffffffffffffffffffff1603611692576040517f08c379a000000000000000000000000000000000000000000000000000000000815260040161168990613b78565b60405180910390fd5b61169b81611d12565b50565b60007f780e9d63000000000000000000000000000000000000000000000000000000007bffffffffffffffffffffffffffffffffffffffffffffffffffffffff1916827bffffffffffffffffffffffffffffffffffffffffffffffffffffffff191614806117115750611710826120f1565b5b9050919050565b600081600001549050919050565b6001816000016000828254019250508190555050565b6117568282604051806020016040528060008152506121d3565b5050565b6117638161222e565b6117a2576040517f08c379a0000000000000000000000000000000000000000000000000000000008152600401611799906139f4565b60405180910390fd5b50565b600033905090565b816004600083815260200190815260200160002060006101000a81548173ffffffffffffffffffffffffffffffffffffffff021916908373ffffffffffffffffffffffffffffffffffffffff160217905550808273ffffffffffffffffffffffffffffffffffffffff16611820836111aa565b73ffffffffffffffffffffffffffffffffffffffff167f8c5be1e5ebec7d5bd14f71427d1e84f3dd0314c0f7b2291e5b200ac8c7c3b92560405160405180910390a45050565b600080611872836111aa565b90508073ffffffffffffffffffffffffffffffffffffffff168473ffffffffffffffffffffffffffffffffffffffff1614806118b457506118b38185611587565b5b806118f257508373ffffffffffffffffffffffffffffffffffffffff166118da84610b02565b73ffffffffffffffffffffffffffffffffffffffff16145b91505092915050565b8273ffffffffffffffffffffffffffffffffffffffff1661191b826111aa565b73ffffffffffffffffffffffffffffffffffffffff1614611971576040517f08c379a000000000000000000000000000000000000000000000000000000000815260040161196890613c0a565b60405180910390fd5b600073ffffffffffffffffffffffffffffffffffffffff168273ffffffffffffffffffffffffffffffffffffffff16036119e0576040517f08c379a00000000000000000000000000000000000000000000000000000000081526004016119d790613c9c565b60405180910390fd5b6119ed838383600161226f565b8273ffffffffffffffffffffffffffffffffffffffff16611a0d826111aa565b73ffffffffffffffffffffffffffffffffffffffff1614611a63576040517f08c379a0000000000000000000000000000000000000000000000000000000008152600401611a5a90613c0a565b60405180910390fd5b6004600082815260200190815260200160002060006101000a81549073ffffffffffffffffffffffffffffffffffffffff02191690556001600360008573ffffffffffffffffffffffffffffffffffffffff1673ffffffffffffffffffffffffffffffffffffffff168152602001908152602001600020600082825403925050819055506001600360008473ffffffffffffffffffffffffffffffffffffffff1673ffffffffffffffffffffffffffffffffffffffff16815260200190815260200160002060008282540192505081905550816002600083815260200190815260200160002060006101000a81548173ffffffffffffffffffffffffffffffffffffffff021916908373ffffffffffffffffffffffffffffffffffffffff160217905550808273ffffffffffffffffffffffffffffffffffffffff168473ffffffffffffffffffffffffffffffffffffffff167fddf252ad1be2c89b69c2b068fc378daa952ba7f163c4a11628f55a4df523b3ef60405160405180910390a4611bef8383836001612289565b505050565b611bfc6117a5565b73ffffffffffffffffffffffffffffffffffffffff16611c1a6113b9565b73ffffffffffffffffffffffffffffffffffffffff1614611c70576040517f08c379a0000000000000000000000000000000000000000000000000000000008152600401611c6790613d08565b60405180910390fd5b565b611c7a61228f565b6000600a60006101000a81548160ff0219169083151502179055507f5db9ee0a495bf2e6ff9c91a7834c1ba4fdd244a5e8aa4e537bd38aeae4b073aa611cbe6117a5565b604051611ccb9190612f35565b60405180910390a1565b60006002600083815260200190815260200160002060009054906101000a900473ffffffffffffffffffffffffffffffffffffffff169050919050565b6000600a60019054906101000a900473ffffffffffffffffffffffffffffffffffffffff16905081600a60016101000a81548173ffffffffffffffffffffffffffffffffffffffff021916908373ffffffffffffffffffffffffffffffffffffffff1602179055508173ffffffffffffffffffffffffffffffffffffffff168173ffffffffffffffffffffffffffffffffffffffff167f8be0079c531659141344cd1fd0a4f28419497f9722a3daafe3b4186f6b6457e060405160405180910390a35050565b611de06122d8565b6001600a60006101000a81548160ff0219169083151502179055507f62e78cea01bee320cd4e420270b5ea74000d11b0c9f74754ebdbfc544b05a258611e246117a5565b604051611e319190612f35565b60405180910390a1565b8173ffffffffffffffffffffffffffffffffffffffff168373ffffffffffffffffffffffffffffffffffffffff1603611ea9576040517f08c379a0000000000000000000000000000000000000000000000000000000008152600401611ea090613d74565b60405180910390fd5b80600560008573ffffffffffffffffffffffffffffffffffffffff1673ffffffffffffffffffffffffffffffffffffffff16815260200190815260200160002060008473ffffffffffffffffffffffffffffffffffffffff1673ffffffffffffffffffffffffffffffffffffffff16815260200190815260200160002060006101000a81548160ff0219169083151502179055508173ffffffffffffffffffffffffffffffffffffffff168373ffffffffffffffffffffffffffffffffffffffff167f17307eab39ab6107e8899845ad3d59bd9653f200f220920489ca2b5937696c3183604051611f9a9190612dc4565b60405180910390a3505050565b611fb28484846118fb565b611fbe84848484612322565b611ffd576040517f08c379a0000000000000000000000000000000000000000000000000000000008152600401611ff490613e06565b60405180910390fd5b50505050565b60606040518060800160405280604481526020016141de60449139905090565b606060006001612032846124a9565b01905060008167ffffffffffffffff811115612051576120506130dc565b5b6040519080825280601f01601f1916602001820160405280156120835781602001600182028036833780820191505090505b509050600082602001820190505b6001156120e6578080600190039150507f3031323334353637383961626364656600000000000000000000000000000000600a86061a8153600a85816120da576120d9613e26565b5b04945060008503612091575b819350505050919050565b60007f80ac58cd000000000000000000000000000000000000000000000000000000007bffffffffffffffffffffffffffffffffffffffffffffffffffffffff1916827bffffffffffffffffffffffffffffffffffffffffffffffffffffffff191614806121bc57507f5b5e139f000000000000000000000000000000000000000000000000000000007bffffffffffffffffffffffffffffffffffffffffffffffffffffffff1916827bffffffffffffffffffffffffffffffffffffffffffffffffffffffff1916145b806121cc57506121cb826125fc565b5b9050919050565b6121dd8383612666565b6121ea6000848484612322565b612229576040517f08c379a000000000000000000000000000000000000000000000000000000000815260040161222090613e06565b60405180910390fd5b505050565b60008073ffffffffffffffffffffffffffffffffffffffff1661225083611cd5565b73ffffffffffffffffffffffffffffffffffffffff1614159050919050565b6122776122d8565b61228384848484612883565b50505050565b50505050565b612297611193565b6122d6576040517f08c379a00000000000000000000000000000000000000000000000000000000081526004016122cd90613ea1565b60405180910390fd5b565b6122e0611193565b15612320576040517f08c379a000000000000000000000000000000000000000000000000000000000815260040161231790613f0d565b60405180910390fd5b565b60006123438473ffffffffffffffffffffffffffffffffffffffff166129e1565b1561249c578373ffffffffffffffffffffffffffffffffffffffff1663150b7a0261236c6117a5565b8786866040518563ffffffff1660e01b815260040161238e9493929190613f82565b6020604051808303816000875af19250505080156123ca57506040513d601f19601f820116820180604052508101906123c79190613fe3565b60015b61244c573d80600081146123fa576040519150601f19603f3d011682016040523d82523d6000602084013e6123ff565b606091505b506000815103612444576040517f08c379a000000000000000000000000000000000000000000000000000000000815260040161243b90613e06565b60405180910390fd5b805181602001fd5b63150b7a0260e01b7bffffffffffffffffffffffffffffffffffffffffffffffffffffffff1916817bffffffffffffffffffffffffffffffffffffffffffffffffffffffff1916149150506124a1565b600190505b949350505050565b600080600090507a184f03e93ff9f4daa797ed6e38ed64bf6a1f0100000000000000008310612507577a184f03e93ff9f4daa797ed6e38ed64bf6a1f01000000000000000083816124fd576124fc613e26565b5b0492506040810190505b6d04ee2d6d415b85acef81000000008310612544576d04ee2d6d415b85acef8100000000838161253a57612539613e26565b5b0492506020810190505b662386f26fc10000831061257357662386f26fc10000838161256957612568613e26565b5b0492506010810190505b6305f5e100831061259c576305f5e100838161259257612591613e26565b5b0492506008810190505b61271083106125c15761271083816125b7576125b6613e26565b5b0492506004810190505b606483106125e457606483816125da576125d9613e26565b5b0492506002810190505b600a83106125f3576001810190505b80915050919050565b60007f01ffc9a7000000000000000000000000000000000000000000000000000000007bffffffffffffffffffffffffffffffffffffffffffffffffffffffff1916827bffffffffffffffffffffffffffffffffffffffffffffffffffffffff1916149050919050565b600073ffffffffffffffffffffffffffffffffffffffff168273ffffffffffffffffffffffffffffffffffffffff16036126d5576040517f08c379a00000000000000000000000000000000000000000000000000000000081526004016126cc9061405c565b60405180910390fd5b6126de8161222e565b1561271e576040517f08c379a0000000000000000000000000000000000000000000000000000000008152600401612715906140c8565b60405180910390fd5b61272c60008383600161226f565b6127358161222e565b15612775576040517f08c379a000000000000000000000000000000000000000000000000000000000815260040161276c906140c8565b60405180910390fd5b6001600360008473ffffffffffffffffffffffffffffffffffffffff1673ffffffffffffffffffffffffffffffffffffffff16815260200190815260200160002060008282540192505081905550816002600083815260200190815260200160002060006101000a81548173ffffffffffffffffffffffffffffffffffffffff021916908373ffffffffffffffffffffffffffffffffffffffff160217905550808273ffffffffffffffffffffffffffffffffffffffff16600073ffffffffffffffffffffffffffffffffffffffff167fddf252ad1be2c89b69c2b068fc378daa952ba7f163c4a11628f55a4df523b3ef60405160405180910390a461287f600083836001612289565b5050565b61288f84848484612a04565b60018111156128d3576040517f08c379a00000000000000000000000000000000000000000000000000000000081526004016128ca9061415a565b60405180910390fd5b6000829050600073ffffffffffffffffffffffffffffffffffffffff168573ffffffffffffffffffffffffffffffffffffffff160361291a5761291581612a0a565b612959565b8373ffffffffffffffffffffffffffffffffffffffff168573ffffffffffffffffffffffffffffffffffffffff1614612958576129578582612a53565b5b5b600073ffffffffffffffffffffffffffffffffffffffff168473ffffffffffffffffffffffffffffffffffffffff160361299b5761299681612bc0565b6129da565b8473ffffffffffffffffffffffffffffffffffffffff168473ffffffffffffffffffffffffffffffffffffffff16146129d9576129d88482612c91565b5b5b5050505050565b6000808273ffffffffffffffffffffffffffffffffffffffff163b119050919050565b50505050565b6008805490506009600083815260200190815260200160002081905550600881908060018154018082558091505060019003906000526020600020016000909190919091505550565b60006001612a60846112dc565b612a6a919061417a565b9050600060076000848152602001908152602001600020549050818114612b4f576000600660008673ffffffffffffffffffffffffffffffffffffffff1673ffffffffffffffffffffffffffffffffffffffff168152602001908152602001600020600084815260200190815260200160002054905080600660008773ffffffffffffffffffffffffffffffffffffffff1673ffffffffffffffffffffffffffffffffffffffff168152602001908152602001600020600084815260200190815260200160002081905550816007600083815260200190815260200160002081905550505b6007600084815260200190815260200160002060009055600660008573ffffffffffffffffffffffffffffffffffffffff1673ffffffffffffffffffffffffffffffffffffffff16815260200190815260200160002060008381526020019081526020016000206000905550505050565b60006001600880549050612bd4919061417a565b9050600060096000848152602001908152602001600020549050600060088381548110612c0457612c03613979565b5b906000526020600020015490508060088381548110612c2657612c25613979565b5b906000526020600020018190555081600960008381526020019081526020016000208190555060096000858152602001908152602001600020600090556008805480612c7557612c746141ae565b5b6001900381819060005260206000200160009055905550505050565b6000612c9c836112dc565b905081600660008573ffffffffffffffffffffffffffffffffffffffff1673ffffffffffffffffffffffffffffffffffffffff168152602001908152602001600020600083815260200190815260200160002081905550806007600084815260200190815260200160002081905550505050565b6000604051905090565b600080fd5b600080fd5b60007fffffffff0000000000000000000000000000000000000000000000000000000082169050919050565b612d5981612d24565b8114612d6457600080fd5b50565b600081359050612d7681612d50565b92915050565b600060208284031215612d9257612d91612d1a565b5b6000612da084828501612d67565b91505092915050565b60008115159050919050565b612dbe81612da9565b82525050565b6000602082019050612dd96000830184612db5565b92915050565b6000819050919050565b612df281612ddf565b8114612dfd57600080fd5b50565b600081359050612e0f81612de9565b92915050565b600060208284031215612e2b57612e2a612d1a565b5b6000612e3984828501612e00565b91505092915050565b600081519050919050565b600082825260208201905092915050565b60005b83811015612e7c578082015181840152602081019050612e61565b60008484015250505050565b6000601f19601f8301169050919050565b6000612ea482612e42565b612eae8185612e4d565b9350612ebe818560208601612e5e565b612ec781612e88565b840191505092915050565b60006020820190508181036000830152612eec8184612e99565b905092915050565b600073ffffffffffffffffffffffffffffffffffffffff82169050919050565b6000612f1f82612ef4565b9050919050565b612f2f81612f14565b82525050565b6000602082019050612f4a6000830184612f26565b92915050565b612f5981612f14565b8114612f6457600080fd5b50565b600081359050612f7681612f50565b92915050565b60008060408385031215612f9357612f92612d1a565b5b6000612fa185828601612f67565b9250506020612fb285828601612e00565b9150509250929050565b612fc581612ddf565b82525050565b6000602082019050612fe06000830184612fbc565b92915050565b600060208284031215612ffc57612ffb612d1a565b5b600061300a84828501612f67565b91505092915050565b60008060006060848603121561302c5761302b612d1a565b5b600061303a86828701612f67565b935050602061304b86828701612f67565b925050604061305c86828701612e00565b9150509250925092565b61306f81612da9565b811461307a57600080fd5b50565b60008135905061308c81613066565b92915050565b600080604083850312156130a9576130a8612d1a565b5b60006130b785828601612f67565b92505060206130c88582860161307d565b9150509250929050565b600080fd5b600080fd5b7f4e487b7100000000000000000000000000000000000000000000000000000000600052604160045260246000fd5b61311482612e88565b810181811067ffffffffffffffff82111715613133576131326130dc565b5b80604052505050565b6000613146612d10565b9050613152828261310b565b919050565b600067ffffffffffffffff821115613172576131716130dc565b5b61317b82612e88565b9050602081019050919050565b82818337600083830152505050565b60006131aa6131a584613157565b61313c565b9050828152602081018484840111156131c6576131c56130d7565b5b6131d1848285613188565b509392505050565b600082601f8301126131ee576131ed6130d2565b5b81356131fe848260208601613197565b91505092915050565b6000806000806080858703121561322157613220612d1a565b5b600061322f87828801612f67565b945050602061324087828801612f67565b935050604061325187828801612e00565b925050606085013567ffffffffffffffff81111561327257613271612d1f565b5b61327e878288016131d9565b91505092959194509250565b600080604083850312156132a1576132a0612d1a565b5b60006132af85828601612f67565b92505060206132c085828601612f67565b9150509250929050565b7f4e487b7100000000000000000000000000000000000000000000000000000000600052601160045260246000fd5b600061330482612ddf565b915061330f83612ddf565b9250828201905080821115613327576133266132ca565b5b92915050565b7f536f6c64206f7574210000000000000000000000000000000000000000000000600082015250565b6000613363600983612e4d565b915061336e8261332d565b602082019050919050565b6000602082019050818103600083015261339281613356565b9050919050565b7f596f7520617265206e6f7420696e207468652077686974656c69737421000000600082015250565b60006133cf601d83612e4d565b91506133da82613399565b602082019050919050565b600060208201905081810360008301526133fe816133c2565b9050919050565b600061341082612ddf565b915061341b83612ddf565b925082820261342981612ddf565b915082820484148315176134405761343f6132ca565b5b5092915050565b7f506c65617365207061792074686520657861637420616d6f756e742100000000600082015250565b600061347d601c83612e4d565b915061348882613447565b602082019050919050565b600060208201905081810360008301526134ac81613470565b9050919050565b7f4d6178207065722077616c6c6574207265616368656421000000000000000000600082015250565b60006134e9601783612e4d565b91506134f4826134b3565b602082019050919050565b60006020820190508181036000830152613518816134dc565b9050919050565b600061352a82612ddf565b91507fffffffffffffffffffffffffffffffffffffffffffffffffffffffffffffffff820361355c5761355b6132ca565b5b600182019050919050565b7f4e487b7100000000000000000000000000000000000000000000000000000000600052602260045260246000fd5b600060028204905060018216806135ae57607f821691505b6020821081036135c1576135c0613567565b5b50919050565b7f4552433732313a20617070726f76616c20746f2063757272656e74206f776e6560008201527f7200000000000000000000000000000000000000000000000000000000000000602082015250565b6000613623602183612e4d565b915061362e826135c7565b604082019050919050565b6000602082019050818103600083015261365281613616565b9050919050565b7f4552433732313a20617070726f76652063616c6c6572206973206e6f7420746f60008201527f6b656e206f776e6572206f7220617070726f76656420666f7220616c6c000000602082015250565b60006136b5603d83612e4d565b91506136c082613659565b604082019050919050565b600060208201905081810360008301526136e4816136a8565b9050919050565b7f416c726561647920616464656400000000000000000000000000000000000000600082015250565b6000613721600d83612e4d565b915061372c826136eb565b602082019050919050565b6000602082019050818103600083015261375081613714565b9050919050565b7f4d6178206f757400000000000000000000000000000000000000000000000000600082015250565b600061378d600783612e4d565b915061379882613757565b602082019050919050565b600060208201905081810360008301526137bc81613780565b9050919050565b7f4552433732313a2063616c6c6572206973206e6f7420746f6b656e206f776e6560008201527f72206f7220617070726f76656400000000000000000000000000000000000000602082015250565b600061381f602d83612e4d565b915061382a826137c3565b604082019050919050565b6000602082019050818103600083015261384e81613812565b9050919050565b7f455243373231456e756d657261626c653a206f776e657220696e646578206f7560008201527f74206f6620626f756e6473000000000000000000000000000000000000000000602082015250565b60006138b1602b83612e4d565b91506138bc82613855565b604082019050919050565b600060208201905081810360008301526138e0816138a4565b9050919050565b7f455243373231456e756d657261626c653a20676c6f62616c20696e646578206f60008201527f7574206f6620626f756e64730000000000000000000000000000000000000000602082015250565b6000613943602c83612e4d565b915061394e826138e7565b604082019050919050565b6000602082019050818103600083015261397281613936565b9050919050565b7f4e487b7100000000000000000000000000000000000000000000000000000000600052603260045260246000fd5b7f4552433732313a20696e76616c696420746f6b656e2049440000000000000000600082015250565b60006139de601883612e4d565b91506139e9826139a8565b602082019050919050565b60006020820190508181036000830152613a0d816139d1565b9050919050565b7f4552433732313a2061646472657373207a65726f206973206e6f74206120766160008201527f6c6964206f776e65720000000000000000000000000000000000000000000000602082015250565b6000613a70602983612e4d565b9150613a7b82613a14565b604082019050919050565b60006020820190508181036000830152613a9f81613a63565b9050919050565b600081905092915050565b6000613abc82612e42565b613ac68185613aa6565b9350613ad6818560208601612e5e565b80840191505092915050565b6000613aee8285613ab1565b9150613afa8284613ab1565b91508190509392505050565b7f4f776e61626c653a206e6577206f776e657220697320746865207a65726f206160008201527f6464726573730000000000000000000000000000000000000000000000000000602082015250565b6000613b62602683612e4d565b9150613b6d82613b06565b604082019050919050565b60006020820190508181036000830152613b9181613b55565b9050919050565b7f4552433732313a207472616e736665722066726f6d20696e636f72726563742060008201527f6f776e6572000000000000000000000000000000000000000000000000000000602082015250565b6000613bf4602583612e4d565b9150613bff82613b98565b604082019050919050565b60006020820190508181036000830152613c2381613be7565b9050919050565b7f4552433732313a207472616e7366657220746f20746865207a65726f2061646460008201527f7265737300000000000000000000000000000000000000000000000000000000602082015250565b6000613c86602483612e4d565b9150613c9182613c2a565b604082019050919050565b60006020820190508181036000830152613cb581613c79565b9050919050565b7f4f776e61626c653a2063616c6c6572206973206e6f7420746865206f776e6572600082015250565b6000613cf2602083612e4d565b9150613cfd82613cbc565b602082019050919050565b60006020820190508181036000830152613d2181613ce5565b9050919050565b7f4552433732313a20617070726f766520746f2063616c6c657200000000000000600082015250565b6000613d5e601983612e4d565b9150613d6982613d28565b602082019050919050565b60006020820190508181036000830152613d8d81613d51565b9050919050565b7f4552433732313a207472616e7366657220746f206e6f6e20455243373231526560008201527f63656976657220696d706c656d656e7465720000000000000000000000000000602082015250565b6000613df0603283612e4d565b9150613dfb82613d94565b604082019050919050565b60006020820190508181036000830152613e1f81613de3565b9050919050565b7f4e487b7100000000000000000000000000000000000000000000000000000000600052601260045260246000fd5b7f5061757361626c653a206e6f7420706175736564000000000000000000000000600082015250565b6000613e8b601483612e4d565b9150613e9682613e55565b602082019050919050565b60006020820190508181036000830152613eba81613e7e565b9050919050565b7f5061757361626c653a2070617573656400000000000000000000000000000000600082015250565b6000613ef7601083612e4d565b9150613f0282613ec1565b602082019050919050565b60006020820190508181036000830152613f2681613eea565b9050919050565b600081519050919050565b600082825260208201905092915050565b6000613f5482613f2d565b613f5e8185613f38565b9350613f6e818560208601612e5e565b613f7781612e88565b840191505092915050565b6000608082019050613f976000830187612f26565b613fa46020830186612f26565b613fb16040830185612fbc565b8181036060830152613fc38184613f49565b905095945050505050565b600081519050613fdd81612d50565b92915050565b600060208284031215613ff957613ff8612d1a565b5b600061400784828501613fce565b91505092915050565b7f4552433732313a206d696e7420746f20746865207a65726f2061646472657373600082015250565b6000614046602083612e4d565b915061405182614010565b602082019050919050565b6000602082019050818103600083015261407581614039565b9050919050565b7f4552433732313a20746f6b656e20616c7265616479206d696e74656400000000600082015250565b60006140b2601c83612e4d565b91506140bd8261407c565b602082019050919050565b600060208201905081810360008301526140e1816140a5565b9050919050565b7f455243373231456e756d657261626c653a20636f6e736563757469766520747260008201527f616e7366657273206e6f7420737570706f727465640000000000000000000000602082015250565b6000614144603583612e4d565b915061414f826140e8565b604082019050919050565b6000602082019050818103600083015261417381614137565b9050919050565b600061418582612ddf565b915061419083612ddf565b92508282039050818111156141a8576141a76132ca565b5b92915050565b7f4e487b7100000000000000000000000000000000000000000000000000000000600052603160045260246000fdfe68747470733a2f2f697066732e696f2f697066732f516d65534a6a56744255517859586f3643434147566b386a324473555667457646317346584d477a6556436366742fa264697066735822122023bfd2de0b4e81a15f12d783324796d7af2edf2bccb8bb606031fea5c31fa39164736f6c63430008120033",
  "linkReferences": {},
  "deployedLinkReferences": {}
}